{
  "_format": "hh-sol-artifact-1",
  "contractName": "Agreement",
  "sourceName": "contracts/Agreement.sol",
  "abi": [
    {
      "inputs": [
        {
          "internalType": "uint256",
          "name": "",
          "type": "uint256"
        }
      ],
      "name": "JobAgreement_by_No",
      "outputs": [
        {
          "internalType": "uint256",
          "name": "agreementId",
          "type": "uint256"
        },
        {
          "internalType": "uint256",
          "name": "jobId",
          "type": "uint256"
        },
        {
          "internalType": "uint256",
          "name": "userId",
          "type": "uint256"
        },
        {
          "internalType": "string",
          "name": "jobTitle",
          "type": "string"
        },
        {
          "internalType": "string",
          "name": "companyName",
          "type": "string"
        },
        {
          "internalType": "string",
          "name": "userName",
          "type": "string"
        },
        {
          "internalType": "uint256",
          "name": "workHourPerWeek",
          "type": "uint256"
        },
        {
          "internalType": "uint256",
          "name": "contractDuration",
          "type": "uint256"
        },
        {
          "internalType": "uint256",
          "name": "salaryPerHour",
          "type": "uint256"
        },
        {
          "internalType": "uint256",
          "name": "timestamp",
          "type": "uint256"
        },
        {
          "internalType": "address",
          "name": "signedEmployer",
          "type": "address"
        },
        {
          "internalType": "address",
          "name": "signedUser",
          "type": "address"
        }
      ],
      "stateMutability": "view",
      "type": "function"
    },
    {
      "inputs": [
        {
          "internalType": "uint256",
          "name": "",
          "type": "uint256"
        }
      ],
      "name": "Job_by_No",
      "outputs": [
        {
          "internalType": "uint256",
          "name": "jobId",
          "type": "uint256"
        },
        {
          "internalType": "uint256",
          "name": "userId",
          "type": "uint256"
        },
        {
          "internalType": "uint256",
          "name": "agreementId",
          "type": "uint256"
        },
        {
          "internalType": "string",
          "name": "jobTitle",
          "type": "string"
        },
        {
          "internalType": "string",
          "name": "companyName",
          "type": "string"
        },
        {
          "internalType": "uint256",
          "name": "workHourPerWeek",
          "type": "uint256"
        },
        {
          "internalType": "uint256",
          "name": "contractDuration",
          "type": "uint256"
        },
        {
          "internalType": "uint256",
          "name": "salaryPerHour",
          "type": "uint256"
        },
        {
          "internalType": "bool",
          "name": "statusOpen",
          "type": "bool"
        },
        {
          "internalType": "uint256",
          "name": "timestamp",
          "type": "uint256"
        },
        {
          "internalType": "address",
          "name": "employer",
          "type": "address"
        },
        {
          "internalType": "address",
          "name": "currentUser",
          "type": "address"
        }
      ],
      "stateMutability": "view",
      "type": "function"
    },
    {
      "inputs": [
        {
          "internalType": "uint256",
          "name": "",
          "type": "uint256"
        }
      ],
      "name": "User_by_No",
      "outputs": [
        {
          "internalType": "uint256",
          "name": "userId",
          "type": "uint256"
        },
        {
          "internalType": "uint256",
          "name": "agreementId",
          "type": "uint256"
        },
        {
          "internalType": "uint256",
          "name": "jobId",
          "type": "uint256"
        },
        {
          "internalType": "string",
          "name": "userName",
          "type": "string"
        },
        {
          "internalType": "uint256",
          "name": "timestamp",
          "type": "uint256"
        },
        {
          "internalType": "address",
          "name": "currentEmployer",
          "type": "address"
        },
        {
          "internalType": "address",
          "name": "user",
          "type": "address"
        }
      ],
      "stateMutability": "view",
      "type": "function"
    },
    {
      "inputs": [
        {
          "internalType": "string",
          "name": "_jobTitle",
          "type": "string"
        },
        {
          "internalType": "string",
          "name": "_companyName",
          "type": "string"
        },
        {
          "internalType": "uint256",
          "name": "_workHourPerWeek",
          "type": "uint256"
        },
        {
          "internalType": "uint256",
          "name": "_salaryPerHour",
          "type": "uint256"
        }
      ],
      "name": "addJob",
      "outputs": [],
      "stateMutability": "nonpayable",
      "type": "function"
    },
    {
      "inputs": [
        {
          "internalType": "uint256",
          "name": "_index",
          "type": "uint256"
        }
      ],
      "name": "agreementCompleted",
      "outputs": [],
      "stateMutability": "nonpayable",
      "type": "function"
    },
    {
      "inputs": [
        {
          "internalType": "uint256",
          "name": "_index",
          "type": "uint256"
        }
      ],
      "name": "agreementTerminated",
      "outputs": [],
      "stateMutability": "nonpayable",
      "type": "function"
    },
    {
      "inputs": [
        {
          "internalType": "uint256",
          "name": "_index",
          "type": "uint256"
        },
        {
          "internalType": "string",
          "name": "_userName",
          "type": "string"
        }
      ],
      "name": "createAndSignAgreementFor180Days",
      "outputs": [],
      "stateMutability": "nonpayable",
      "type": "function"
    },
    {
      "inputs": [
        {
          "internalType": "uint256",
          "name": "_index",
          "type": "uint256"
        },
        {
          "internalType": "string",
          "name": "_userName",
          "type": "string"
        }
      ],
      "name": "createAndSignAgreementFor30Days",
      "outputs": [],
      "stateMutability": "nonpayable",
      "type": "function"
    },
    {
      "inputs": [
        {
          "internalType": "uint256",
          "name": "_index",
          "type": "uint256"
        },
        {
          "internalType": "string",
          "name": "_userName",
          "type": "string"
        }
      ],
      "name": "createAndSignAgreementFor7Days",
      "outputs": [],
      "stateMutability": "nonpayable",
      "type": "function"
    },
    {
      "inputs": [],
      "name": "no_of_jobAgreements",
      "outputs": [
        {
          "internalType": "uint256",
          "name": "",
          "type": "uint256"
        }
      ],
      "stateMutability": "view",
      "type": "function"
    },
    {
      "inputs": [],
      "name": "no_of_jobs",
      "outputs": [
        {
          "internalType": "uint256",
          "name": "",
          "type": "uint256"
        }
      ],
      "stateMutability": "view",
      "type": "function"
    },
    {
      "inputs": [],
      "name": "no_of_users",
      "outputs": [
        {
          "internalType": "uint256",
          "name": "",
          "type": "uint256"
        }
      ],
      "stateMutability": "view",
      "type": "function"
    }
  ],
  "bytecode": "0x6080604052600080556000600155600060025534801561001e57600080fd5b50612eda8061002e6000396000f3fe608060405234801561001057600080fd5b50600436106100b45760003560e01c8063b9871c1f11610071578063b9871c1f14610182578063ccdbaf40146101a0578063cded1625146101db578063d5571ba5146101f9578063f2334dd614610215578063f3e5656b1461024b576100b4565b806316abb8a1146100b9578063184d3055146100d55780634f5e4428146100f1578063639410721461010d5780638e750fdb14610129578063a123603114610147575b600080fd5b6100d360048036038101906100ce919061237f565b610267565b005b6100ef60048036038101906100ea91906124f2565b61047f565b005b61010b6004803603810190610106919061237f565b61069e565b005b61012760048036038101906101229190612591565b61084c565b005b610131610f94565b60405161013e91906125fc565b60405180910390f35b610161600480360381019061015c919061237f565b610f9a565b6040516101799c9b9a999897969594939291906126f2565b60405180910390f35b61018a611157565b60405161019791906125fc565b60405180910390f35b6101ba60048036038101906101b5919061237f565b61115d565b6040516101d29c9b9a999897969594939291906127ba565b60405180910390f35b6101e3611395565b6040516101f091906125fc565b60405180910390f35b610213600480360381019061020e9190612591565b61139b565b005b61022f600480360381019061022a919061237f565b611ae3565b6040516102429796959493929190612889565b60405180910390f35b61026560048036038101906102609190612591565b611bed565b005b8060036000828152602001908152602001600020600a0160009054906101000a900473ffffffffffffffffffffffffffffffffffffffff1673ffffffffffffffffffffffffffffffffffffffff163373ffffffffffffffffffffffffffffffffffffffff161461030c576040517f08c379a00000000000000000000000000000000000000000000000000000000081526004016103039061294b565b60405180910390fd5b81600060036000838152602001908152602001600020600201549050600060046000838152602001908152602001600020600701546004600084815260200190815260200160002060090154610362919061299a565b90508042106103a6576040517f08c379a000000000000000000000000000000000000000000000000000000000815260040161039d90612a1a565b60405180910390fd5b600073ffffffffffffffffffffffffffffffffffffffff163373ffffffffffffffffffffffffffffffffffffffff16036103df57600080fd5b600015156003600087815260200190815260200160002060080160009054906101000a900460ff16151514610449576040517f08c379a000000000000000000000000000000000000000000000000000000000815260040161044090612a86565b60405180910390fd5b60016003600087815260200190815260200160002060080160006101000a81548160ff0219169083151502179055505050505050565b600073ffffffffffffffffffffffffffffffffffffffff163373ffffffffffffffffffffffffffffffffffffffff16036104b857600080fd5b6000808154809291906104ca90612aa6565b919050555060006001905060405180610180016040528060005481526020016000815260200160008152602001868152602001858152602001848152602001600081526020018381526020018215158152602001600081526020013373ffffffffffffffffffffffffffffffffffffffff168152602001600073ffffffffffffffffffffffffffffffffffffffff16815250600360008054815260200190815260200160002060008201518160000155602082015181600101556040820151816002015560608201518160030190816105a39190612cfa565b5060808201518160040190816105b99190612cfa565b5060a0820151816005015560c0820151816006015560e082015181600701556101008201518160080160006101000a81548160ff021916908315150217905550610120820151816009015561014082015181600a0160006101000a81548173ffffffffffffffffffffffffffffffffffffffff021916908373ffffffffffffffffffffffffffffffffffffffff16021790555061016082015181600b0160006101000a81548173ffffffffffffffffffffffffffffffffffffffff021916908373ffffffffffffffffffffffffffffffffffffffff1602179055509050505050505050565b8060036000828152602001908152602001600020600a0160009054906101000a900473ffffffffffffffffffffffffffffffffffffffff1673ffffffffffffffffffffffffffffffffffffffff163373ffffffffffffffffffffffffffffffffffffffff1614610743576040517f08c379a000000000000000000000000000000000000000000000000000000000815260040161073a9061294b565b60405180910390fd5b81600060036000838152602001908152602001600020600201549050600060046000838152602001908152602001600020600701546004600084815260200190815260200160002060090154610799919061299a565b90508042116107dd576040517f08c379a00000000000000000000000000000000000000000000000000000000081526004016107d490612e18565b60405180910390fd5b600073ffffffffffffffffffffffffffffffffffffffff163373ffffffffffffffffffffffffffffffffffffffff160361081657600080fd5b60016003600087815260200190815260200160002060080160006101000a81548160ff0219169083151502179055505050505050565b8160036000828152602001908152602001600020600a0160009054906101000a900473ffffffffffffffffffffffffffffffffffffffff1673ffffffffffffffffffffffffffffffffffffffff163373ffffffffffffffffffffffffffffffffffffffff16036108f1576040517f08c379a00000000000000000000000000000000000000000000000000000000081526004016108e890612e84565b60405180910390fd5b82600115156003600083815260200190815260200160002060080160009054906101000a900460ff1615151461095c576040517f08c379a000000000000000000000000000000000000000000000000000000000815260040161095390612a86565b60405180910390fd5b600073ffffffffffffffffffffffffffffffffffffffff163373ffffffffffffffffffffffffffffffffffffffff160361099557600080fd5b600160008154809291906109a890612aa6565b9190505550600260008154809291906109c090612aa6565b91905055503360036000868152602001908152602001600020600b0160006101000a81548173ffffffffffffffffffffffffffffffffffffffff021916908373ffffffffffffffffffffffffffffffffffffffff16021790555042600360008681526020019081526020016000206009018190555060006003600086815260200190815260200160002060080160006101000a81548160ff02191690831515021790555062093a8060036000868152602001908152602001600020600601819055506001546003600086815260200190815260200160002060020181905550600254600360008681526020019081526020016000206001018190555060405180610180016040528060015481526020018581526020016002548152602001600360008781526020019081526020016000206003018054610aff90612b1d565b80601f0160208091040260200160405190810160405280929190818152602001828054610b2b90612b1d565b8015610b785780601f10610b4d57610100808354040283529160200191610b78565b820191906000526020600020905b815481529060010190602001808311610b5b57829003601f168201915b50505050508152602001600360008781526020019081526020016000206004018054610ba390612b1d565b80601f0160208091040260200160405190810160405280929190818152602001828054610bcf90612b1d565b8015610c1c5780601f10610bf157610100808354040283529160200191610c1c565b820191906000526020600020905b815481529060010190602001808311610bff57829003601f168201915b505050505081526020018481526020016003600087815260200190815260200160002060050154815260200162093a8081526020016003600087815260200190815260200160002060070154815260200142815260200160036000878152602001908152602001600020600a0160009054906101000a900473ffffffffffffffffffffffffffffffffffffffff1673ffffffffffffffffffffffffffffffffffffffff1681526020013373ffffffffffffffffffffffffffffffffffffffff168152506004600060015481526020019081526020016000206000820151816000015560208201518160010155604082015181600201556060820151816003019081610d279190612cfa565b506080820151816004019081610d3d9190612cfa565b5060a0820151816005019081610d539190612cfa565b5060c0820151816006015560e082015181600701556101008201518160080155610120820151816009015561014082015181600a0160006101000a81548173ffffffffffffffffffffffffffffffffffffffff021916908373ffffffffffffffffffffffffffffffffffffffff16021790555061016082015181600b0160006101000a81548173ffffffffffffffffffffffffffffffffffffffff021916908373ffffffffffffffffffffffffffffffffffffffff1602179055509050506040518060e001604052806002548152602001600154815260200185815260200184815260200142815260200160036000878152602001908152602001600020600a0160009054906101000a900473ffffffffffffffffffffffffffffffffffffffff1673ffffffffffffffffffffffffffffffffffffffff1681526020013373ffffffffffffffffffffffffffffffffffffffff168152506005600060025481526020019081526020016000206000820151816000015560208201518160010155604082015181600201556060820151816003019081610ef29190612cfa565b506080820151816004015560a08201518160050160006101000a81548173ffffffffffffffffffffffffffffffffffffffff021916908373ffffffffffffffffffffffffffffffffffffffff16021790555060c08201518160060160006101000a81548173ffffffffffffffffffffffffffffffffffffffff021916908373ffffffffffffffffffffffffffffffffffffffff16021790555090505050505050565b60015481565b6003602052806000526040600020600091509050806000015490806001015490806002015490806003018054610fcf90612b1d565b80601f0160208091040260200160405190810160405280929190818152602001828054610ffb90612b1d565b80156110485780601f1061101d57610100808354040283529160200191611048565b820191906000526020600020905b81548152906001019060200180831161102b57829003601f168201915b50505050509080600401805461105d90612b1d565b80601f016020809104026020016040519081016040528092919081815260200182805461108990612b1d565b80156110d65780601f106110ab576101008083540402835291602001916110d6565b820191906000526020600020905b8154815290600101906020018083116110b957829003601f168201915b5050505050908060050154908060060154908060070154908060080160009054906101000a900460ff169080600901549080600a0160009054906101000a900473ffffffffffffffffffffffffffffffffffffffff169080600b0160009054906101000a900473ffffffffffffffffffffffffffffffffffffffff1690508c565b60005481565b600460205280600052604060002060009150905080600001549080600101549080600201549080600301805461119290612b1d565b80601f01602080910402602001604051908101604052809291908181526020018280546111be90612b1d565b801561120b5780601f106111e05761010080835404028352916020019161120b565b820191906000526020600020905b8154815290600101906020018083116111ee57829003601f168201915b50505050509080600401805461122090612b1d565b80601f016020809104026020016040519081016040528092919081815260200182805461124c90612b1d565b80156112995780601f1061126e57610100808354040283529160200191611299565b820191906000526020600020905b81548152906001019060200180831161127c57829003601f168201915b5050505050908060050180546112ae90612b1d565b80601f01602080910402602001604051908101604052809291908181526020018280546112da90612b1d565b80156113275780601f106112fc57610100808354040283529160200191611327565b820191906000526020600020905b81548152906001019060200180831161130a57829003601f168201915b50505050509080600601549080600701549080600801549080600901549080600a0160009054906101000a900473ffffffffffffffffffffffffffffffffffffffff169080600b0160009054906101000a900473ffffffffffffffffffffffffffffffffffffffff1690508c565b60025481565b8160036000828152602001908152602001600020600a0160009054906101000a900473ffffffffffffffffffffffffffffffffffffffff1673ffffffffffffffffffffffffffffffffffffffff163373ffffffffffffffffffffffffffffffffffffffff1603611440576040517f08c379a000000000000000000000000000000000000000000000000000000000815260040161143790612e84565b60405180910390fd5b82600115156003600083815260200190815260200160002060080160009054906101000a900460ff161515146114ab576040517f08c379a00000000000000000000000000000000000000000000000000000000081526004016114a290612a86565b60405180910390fd5b600073ffffffffffffffffffffffffffffffffffffffff163373ffffffffffffffffffffffffffffffffffffffff16036114e457600080fd5b600160008154809291906114f790612aa6565b91905055506002600081548092919061150f90612aa6565b91905055503360036000868152602001908152602001600020600b0160006101000a81548173ffffffffffffffffffffffffffffffffffffffff021916908373ffffffffffffffffffffffffffffffffffffffff16021790555042600360008681526020019081526020016000206009018190555060006003600086815260200190815260200160002060080160006101000a81548160ff02191690831515021790555062278d006003600086815260200190815260200160002060060181905550600154600360008681526020019081526020016000206002018190555060025460036000868152602001908152602001600020600101819055506040518061018001604052806001548152602001858152602001600254815260200160036000878152602001908152602001600020600301805461164e90612b1d565b80601f016020809104026020016040519081016040528092919081815260200182805461167a90612b1d565b80156116c75780601f1061169c576101008083540402835291602001916116c7565b820191906000526020600020905b8154815290600101906020018083116116aa57829003601f168201915b505050505081526020016003600087815260200190815260200160002060040180546116f290612b1d565b80601f016020809104026020016040519081016040528092919081815260200182805461171e90612b1d565b801561176b5780601f106117405761010080835404028352916020019161176b565b820191906000526020600020905b81548152906001019060200180831161174e57829003601f168201915b505050505081526020018481526020016003600087815260200190815260200160002060050154815260200162278d0081526020016003600087815260200190815260200160002060070154815260200142815260200160036000878152602001908152602001600020600a0160009054906101000a900473ffffffffffffffffffffffffffffffffffffffff1673ffffffffffffffffffffffffffffffffffffffff1681526020013373ffffffffffffffffffffffffffffffffffffffff1681525060046000600154815260200190815260200160002060008201518160000155602082015181600101556040820151816002015560608201518160030190816118769190612cfa565b50608082015181600401908161188c9190612cfa565b5060a08201518160050190816118a29190612cfa565b5060c0820151816006015560e082015181600701556101008201518160080155610120820151816009015561014082015181600a0160006101000a81548173ffffffffffffffffffffffffffffffffffffffff021916908373ffffffffffffffffffffffffffffffffffffffff16021790555061016082015181600b0160006101000a81548173ffffffffffffffffffffffffffffffffffffffff021916908373ffffffffffffffffffffffffffffffffffffffff1602179055509050506040518060e001604052806002548152602001600154815260200185815260200184815260200142815260200160036000878152602001908152602001600020600a0160009054906101000a900473ffffffffffffffffffffffffffffffffffffffff1673ffffffffffffffffffffffffffffffffffffffff1681526020013373ffffffffffffffffffffffffffffffffffffffff168152506005600060025481526020019081526020016000206000820151816000015560208201518160010155604082015181600201556060820151816003019081611a419190612cfa565b506080820151816004015560a08201518160050160006101000a81548173ffffffffffffffffffffffffffffffffffffffff021916908373ffffffffffffffffffffffffffffffffffffffff16021790555060c08201518160060160006101000a81548173ffffffffffffffffffffffffffffffffffffffff021916908373ffffffffffffffffffffffffffffffffffffffff16021790555090505050505050565b6005602052806000526040600020600091509050806000015490806001015490806002015490806003018054611b1890612b1d565b80601f0160208091040260200160405190810160405280929190818152602001828054611b4490612b1d565b8015611b915780601f10611b6657610100808354040283529160200191611b91565b820191906000526020600020905b815481529060010190602001808311611b7457829003601f168201915b5050505050908060040154908060050160009054906101000a900473ffffffffffffffffffffffffffffffffffffffff16908060060160009054906101000a900473ffffffffffffffffffffffffffffffffffffffff16905087565b8160036000828152602001908152602001600020600a0160009054906101000a900473ffffffffffffffffffffffffffffffffffffffff1673ffffffffffffffffffffffffffffffffffffffff163373ffffffffffffffffffffffffffffffffffffffff1603611c92576040517f08c379a0000000000000000000000000000000000000000000000000000000008152600401611c8990612e84565b60405180910390fd5b82600115156003600083815260200190815260200160002060080160009054906101000a900460ff16151514611cfd576040517f08c379a0000000000000000000000000000000000000000000000000000000008152600401611cf490612a86565b60405180910390fd5b600073ffffffffffffffffffffffffffffffffffffffff163373ffffffffffffffffffffffffffffffffffffffff1603611d3657600080fd5b60016000815480929190611d4990612aa6565b919050555060026000815480929190611d6190612aa6565b91905055503360036000868152602001908152602001600020600b0160006101000a81548173ffffffffffffffffffffffffffffffffffffffff021916908373ffffffffffffffffffffffffffffffffffffffff16021790555042600360008681526020019081526020016000206009018190555060006003600086815260200190815260200160002060080160006101000a81548160ff02191690831515021790555062ed4e0060036000868152602001908152602001600020600601819055506001546003600086815260200190815260200160002060020181905550600254600360008681526020019081526020016000206001018190555060405180610180016040528060015481526020018581526020016002548152602001600360008781526020019081526020016000206003018054611ea090612b1d565b80601f0160208091040260200160405190810160405280929190818152602001828054611ecc90612b1d565b8015611f195780601f10611eee57610100808354040283529160200191611f19565b820191906000526020600020905b815481529060010190602001808311611efc57829003601f168201915b50505050508152602001600360008781526020019081526020016000206004018054611f4490612b1d565b80601f0160208091040260200160405190810160405280929190818152602001828054611f7090612b1d565b8015611fbd5780601f10611f9257610100808354040283529160200191611fbd565b820191906000526020600020905b815481529060010190602001808311611fa057829003601f168201915b505050505081526020018481526020016003600087815260200190815260200160002060050154815260200162ed4e0081526020016003600087815260200190815260200160002060070154815260200142815260200160036000878152602001908152602001600020600a0160009054906101000a900473ffffffffffffffffffffffffffffffffffffffff1673ffffffffffffffffffffffffffffffffffffffff1681526020013373ffffffffffffffffffffffffffffffffffffffff1681525060046000600154815260200190815260200160002060008201518160000155602082015181600101556040820151816002015560608201518160030190816120c89190612cfa565b5060808201518160040190816120de9190612cfa565b5060a08201518160050190816120f49190612cfa565b5060c0820151816006015560e082015181600701556101008201518160080155610120820151816009015561014082015181600a0160006101000a81548173ffffffffffffffffffffffffffffffffffffffff021916908373ffffffffffffffffffffffffffffffffffffffff16021790555061016082015181600b0160006101000a81548173ffffffffffffffffffffffffffffffffffffffff021916908373ffffffffffffffffffffffffffffffffffffffff1602179055509050506040518060e001604052806002548152602001600154815260200185815260200184815260200142815260200160036000878152602001908152602001600020600a0160009054906101000a900473ffffffffffffffffffffffffffffffffffffffff1673ffffffffffffffffffffffffffffffffffffffff1681526020013373ffffffffffffffffffffffffffffffffffffffff1681525060056000600254815260200190815260200160002060008201518160000155602082015181600101556040820151816002015560608201518160030190816122939190612cfa565b506080820151816004015560a08201518160050160006101000a81548173ffffffffffffffffffffffffffffffffffffffff021916908373ffffffffffffffffffffffffffffffffffffffff16021790555060c08201518160060160006101000a81548173ffffffffffffffffffffffffffffffffffffffff021916908373ffffffffffffffffffffffffffffffffffffffff16021790555090505050505050565b6000604051905090565b600080fd5b600080fd5b6000819050919050565b61235c81612349565b811461236757600080fd5b50565b60008135905061237981612353565b92915050565b6000602082840312156123955761239461233f565b5b60006123a38482850161236a565b91505092915050565b600080fd5b600080fd5b6000601f19601f8301169050919050565b7f4e487b7100000000000000000000000000000000000000000000000000000000600052604160045260246000fd5b6123ff826123b6565b810181811067ffffffffffffffff8211171561241e5761241d6123c7565b5b80604052505050565b6000612431612335565b905061243d82826123f6565b919050565b600067ffffffffffffffff82111561245d5761245c6123c7565b5b612466826123b6565b9050602081019050919050565b82818337600083830152505050565b600061249561249084612442565b612427565b9050828152602081018484840111156124b1576124b06123b1565b5b6124bc848285612473565b509392505050565b600082601f8301126124d9576124d86123ac565b5b81356124e9848260208601612482565b91505092915050565b6000806000806080858703121561250c5761250b61233f565b5b600085013567ffffffffffffffff81111561252a57612529612344565b5b612536878288016124c4565b945050602085013567ffffffffffffffff81111561255757612556612344565b5b612563878288016124c4565b93505060406125748782880161236a565b92505060606125858782880161236a565b91505092959194509250565b600080604083850312156125a8576125a761233f565b5b60006125b68582860161236a565b925050602083013567ffffffffffffffff8111156125d7576125d6612344565b5b6125e3858286016124c4565b9150509250929050565b6125f681612349565b82525050565b600060208201905061261160008301846125ed565b92915050565b600081519050919050565b600082825260208201905092915050565b60005b83811015612651578082015181840152602081019050612636565b60008484015250505050565b600061266882612617565b6126728185612622565b9350612682818560208601612633565b61268b816123b6565b840191505092915050565b60008115159050919050565b6126ab81612696565b82525050565b600073ffffffffffffffffffffffffffffffffffffffff82169050919050565b60006126dc826126b1565b9050919050565b6126ec816126d1565b82525050565b600061018082019050612708600083018f6125ed565b612715602083018e6125ed565b612722604083018d6125ed565b8181036060830152612734818c61265d565b90508181036080830152612748818b61265d565b905061275760a083018a6125ed565b61276460c08301896125ed565b61277160e08301886125ed565b61277f6101008301876126a2565b61278d6101208301866125ed565b61279b6101408301856126e3565b6127a96101608301846126e3565b9d9c50505050505050505050505050565b6000610180820190506127d0600083018f6125ed565b6127dd602083018e6125ed565b6127ea604083018d6125ed565b81810360608301526127fc818c61265d565b90508181036080830152612810818b61265d565b905081810360a0830152612824818a61265d565b905061283360c08301896125ed565b61284060e08301886125ed565b61284e6101008301876125ed565b61285c6101208301866125ed565b61286a6101408301856126e3565b6128786101608301846126e3565b9d9c50505050505050505050505050565b600060e08201905061289e600083018a6125ed565b6128ab60208301896125ed565b6128b860408301886125ed565b81810360608301526128ca818761265d565b90506128d960808301866125ed565b6128e660a08301856126e3565b6128f360c08301846126e3565b98975050505050505050565b7f4f6e6c7920456d706c6f7965722063616e206163636573732074686973000000600082015250565b6000612935601d83612622565b9150612940826128ff565b602082019050919050565b6000602082019050818103600083015261296481612928565b9050919050565b7f4e487b7100000000000000000000000000000000000000000000000000000000600052601160045260246000fd5b60006129a582612349565b91506129b083612349565b92508282019050808211156129c8576129c761296b565b5b92915050565b7f41677265656d656e7420616c726561647920456e646564000000000000000000600082015250565b6000612a04601783612622565b9150612a0f826129ce565b602082019050919050565b60006020820190508181036000830152612a33816129f7565b9050919050565b7f4a6f622069732063757272656e746c7920436c6f7365642e0000000000000000600082015250565b6000612a70601883612622565b9150612a7b82612a3a565b602082019050919050565b60006020820190508181036000830152612a9f81612a63565b9050919050565b6000612ab182612349565b91507fffffffffffffffffffffffffffffffffffffffffffffffffffffffffffffffff8203612ae357612ae261296b565b5b600182019050919050565b7f4e487b7100000000000000000000000000000000000000000000000000000000600052602260045260246000fd5b60006002820490506001821680612b3557607f821691505b602082108103612b4857612b47612aee565b5b50919050565b60008190508160005260206000209050919050565b60006020601f8301049050919050565b600082821b905092915050565b600060088302612bb07fffffffffffffffffffffffffffffffffffffffffffffffffffffffffffffffff82612b73565b612bba8683612b73565b95508019841693508086168417925050509392505050565b6000819050919050565b6000612bf7612bf2612bed84612349565b612bd2565b612349565b9050919050565b6000819050919050565b612c1183612bdc565b612c25612c1d82612bfe565b848454612b80565b825550505050565b600090565b612c3a612c2d565b612c45818484612c08565b505050565b5b81811015612c6957612c5e600082612c32565b600181019050612c4b565b5050565b601f821115612cae57612c7f81612b4e565b612c8884612b63565b81016020851015612c97578190505b612cab612ca385612b63565b830182612c4a565b50505b505050565b600082821c905092915050565b6000612cd160001984600802612cb3565b1980831691505092915050565b6000612cea8383612cc0565b9150826002028217905092915050565b612d0382612617565b67ffffffffffffffff811115612d1c57612d1b6123c7565b5b612d268254612b1d565b612d31828285612c6d565b600060209050601f831160018114612d645760008415612d52578287015190505b612d5c8582612cde565b865550612dc4565b601f198416612d7286612b4e565b60005b82811015612d9a57848901518255600182019150602085019450602081019050612d75565b86831015612db75784890151612db3601f891682612cc0565b8355505b6001600288020188555050505b505050505050565b7f54696d65206973206c65667420666f7220636f6e747261637420746f20656e64600082015250565b6000612e02602083612622565b9150612e0d82612dcc565b602082019050919050565b60006020820190508181036000830152612e3181612df5565b9050919050565b7f4f6e6c7920557365722063616e20616363657373207468697300000000000000600082015250565b6000612e6e601983612622565b9150612e7982612e38565b602082019050919050565b60006020820190508181036000830152612e9d81612e61565b905091905056fea2646970667358221220ce635dbdf2f0b4ae13666989895a2f04df784f448e6399e16c604aaf6920ab3764736f6c63430008120033",
  "linkReferences": {},
  "deployedLinkReferences": {}
}