{
  "_format": "hh-sol-artifact-1",
  "contractName": "Agreement",
  "sourceName": "contracts/Agreement.sol",
  "abi": [
    {
      "inputs": [
        {
          "internalType": "uint256",
          "name": "",
          "type": "uint256"
        }
      ],
      "name": "JobAgreement_by_No",
      "outputs": [
        {
          "internalType": "uint256",
          "name": "agreementId",
          "type": "uint256"
        },
        {
          "internalType": "uint256",
          "name": "jobId",
          "type": "uint256"
        },
        {
          "internalType": "uint256",
          "name": "userId",
          "type": "uint256"
        },
        {
          "internalType": "string",
          "name": "jobTitle",
          "type": "string"
        },
        {
          "internalType": "string",
          "name": "companyName",
          "type": "string"
        },
        {
          "internalType": "string",
          "name": "userName",
          "type": "string"
        },
        {
          "internalType": "uint256",
          "name": "workHourPerWeek",
          "type": "uint256"
        },
        {
          "internalType": "uint256",
          "name": "contractDuration",
          "type": "uint256"
        },
        {
          "internalType": "uint256",
          "name": "salaryPerHour",
          "type": "uint256"
        },
        {
          "internalType": "uint256",
          "name": "timestamp",
          "type": "uint256"
        },
        {
          "internalType": "address",
          "name": "signedEmployer",
          "type": "address"
        },
        {
          "internalType": "address",
          "name": "signedUser",
          "type": "address"
        }
      ],
      "stateMutability": "view",
      "type": "function"
    },
    {
      "inputs": [
        {
          "internalType": "uint256",
          "name": "",
          "type": "uint256"
        }
      ],
      "name": "Job_by_No",
      "outputs": [
        {
          "internalType": "uint256",
          "name": "jobId",
          "type": "uint256"
        },
        {
          "internalType": "uint256",
          "name": "userId",
          "type": "uint256"
        },
        {
          "internalType": "uint256",
          "name": "agreementId",
          "type": "uint256"
        },
        {
          "internalType": "string",
          "name": "jobTitle",
          "type": "string"
        },
        {
          "internalType": "string",
          "name": "companyName",
          "type": "string"
        },
        {
          "internalType": "uint256",
          "name": "workHourPerWeek",
          "type": "uint256"
        },
        {
          "internalType": "uint256",
          "name": "contractDuration",
          "type": "uint256"
        },
        {
          "internalType": "uint256",
          "name": "salaryPerHour",
          "type": "uint256"
        },
        {
          "internalType": "bool",
          "name": "statusOpen",
          "type": "bool"
        },
        {
          "internalType": "uint256",
          "name": "timestamp",
          "type": "uint256"
        },
        {
          "internalType": "address",
          "name": "employer",
          "type": "address"
        },
        {
          "internalType": "address",
          "name": "currentUser",
          "type": "address"
        }
      ],
      "stateMutability": "view",
      "type": "function"
    },
    {
      "inputs": [
        {
          "internalType": "uint256",
          "name": "",
          "type": "uint256"
        }
      ],
      "name": "User_by_No",
      "outputs": [
        {
          "internalType": "uint256",
          "name": "userId",
          "type": "uint256"
        },
        {
          "internalType": "uint256",
          "name": "agreementId",
          "type": "uint256"
        },
        {
          "internalType": "uint256",
          "name": "jobId",
          "type": "uint256"
        },
        {
          "internalType": "string",
          "name": "userName",
          "type": "string"
        },
        {
          "internalType": "uint256",
          "name": "timestamp",
          "type": "uint256"
        },
        {
          "internalType": "address",
          "name": "currentEmployer",
          "type": "address"
        },
        {
          "internalType": "address",
          "name": "user",
          "type": "address"
        }
      ],
      "stateMutability": "view",
      "type": "function"
    },
    {
      "inputs": [
        {
          "internalType": "string",
          "name": "_jobTitle",
          "type": "string"
        },
        {
          "internalType": "string",
          "name": "_companyName",
          "type": "string"
        },
        {
          "internalType": "uint256",
          "name": "_workHourPerWeek",
          "type": "uint256"
        },
        {
          "internalType": "uint256",
          "name": "_salaryPerHour",
          "type": "uint256"
        }
      ],
      "name": "addJob",
      "outputs": [],
      "stateMutability": "nonpayable",
      "type": "function"
    },
    {
      "inputs": [
        {
          "internalType": "uint256",
          "name": "_index",
          "type": "uint256"
        },
        {
          "internalType": "string",
          "name": "_userName",
          "type": "string"
        }
      ],
      "name": "createAndSignAgreementFor180Days",
      "outputs": [],
      "stateMutability": "nonpayable",
      "type": "function"
    },
    {
      "inputs": [
        {
          "internalType": "uint256",
          "name": "_index",
          "type": "uint256"
        },
        {
          "internalType": "string",
          "name": "_userName",
          "type": "string"
        }
      ],
      "name": "createAndSignAgreementFor30Days",
      "outputs": [],
      "stateMutability": "nonpayable",
      "type": "function"
    },
    {
      "inputs": [
        {
          "internalType": "uint256",
          "name": "_index",
          "type": "uint256"
        },
        {
          "internalType": "string",
          "name": "_userName",
          "type": "string"
        }
      ],
      "name": "createAndSignAgreementFor7Days",
      "outputs": [],
      "stateMutability": "nonpayable",
      "type": "function"
    },
    {
      "inputs": [],
      "name": "no_of_jobAgreements",
      "outputs": [
        {
          "internalType": "uint256",
          "name": "",
          "type": "uint256"
        }
      ],
      "stateMutability": "view",
      "type": "function"
    },
    {
      "inputs": [],
      "name": "no_of_jobs",
      "outputs": [
        {
          "internalType": "uint256",
          "name": "",
          "type": "uint256"
        }
      ],
      "stateMutability": "view",
      "type": "function"
    },
    {
      "inputs": [],
      "name": "no_of_users",
      "outputs": [
        {
          "internalType": "uint256",
          "name": "",
          "type": "uint256"
        }
      ],
      "stateMutability": "view",
      "type": "function"
    }
  ],
  "bytecode": "0x6080604052600080556000600155600060025534801561001e57600080fd5b506131498061002e6000396000f3fe608060405234801561001057600080fd5b506004361061009e5760003560e01c8063ccdbaf4011610066578063ccdbaf4014610152578063cded16251461018d578063d5571ba5146101ab578063f2334dd6146101c7578063f3e5656b146101fd5761009e565b8063184d3055146100a357806363941072146100bf5780638e750fdb146100db578063a1236031146100f9578063b9871c1f14610134575b600080fd5b6100bd60048036038101906100b891906128ac565b610219565b005b6100d960048036038101906100d4919061294b565b6104ec565b005b6100e3610ea0565b6040516100f091906129b6565b60405180910390f35b610113600480360381019061010e91906129d1565b610ea6565b60405161012b9c9b9a99989796959493929190612ad9565b60405180910390f35b61013c611063565b60405161014991906129b6565b60405180910390f35b61016c600480360381019061016791906129d1565b611069565b6040516101849c9b9a99989796959493929190612ba1565b60405180910390f35b6101956112a1565b6040516101a291906129b6565b60405180910390f35b6101c560048036038101906101c0919061294b565b6112a7565b005b6101e160048036038101906101dc91906129d1565b611c5b565b6040516101f49796959493929190612c70565b60405180910390f35b6102176004803603810190610212919061294b565b611d65565b005b61022d67a3d83bac0859c43a60c01b612719565b610241673c9f338eca77588760c01b612719565b6102556706964870ebea093160c01b612719565b61026967ae3c79071ab18cb460c01b612719565b600073ffffffffffffffffffffffffffffffffffffffff163373ffffffffffffffffffffffffffffffffffffffff16036102a257600080fd5b6102b667959cc82fd45d8d6c60c01b612719565b6102ca676c0a39c0ce15288f60c01b612719565b6000808154809291906102dc90612d15565b91905055506102f567baba34e8b2b6c4d660c01b612719565b61030967f64222b5539c90fb60c01b612719565b6000600190506103236759faa799a906aa4260c01b612719565b60405180610180016040528060005481526020016000815260200160008152602001868152602001858152602001848152602001600081526020018381526020018215158152602001600081526020013373ffffffffffffffffffffffffffffffffffffffff168152602001600073ffffffffffffffffffffffffffffffffffffffff16815250600360008054815260200190815260200160002060008201518160000155602082015181600101556040820151816002015560608201518160030190816103f19190612f69565b5060808201518160040190816104079190612f69565b5060a0820151816005015560c0820151816006015560e082015181600701556101008201518160080160006101000a81548160ff021916908315150217905550610120820151816009015561014082015181600a0160006101000a81548173ffffffffffffffffffffffffffffffffffffffff021916908373ffffffffffffffffffffffffffffffffffffffff16021790555061016082015181600b0160006101000a81548173ffffffffffffffffffffffffffffffffffffffff021916908373ffffffffffffffffffffffffffffffffffffffff1602179055509050505050505050565b610500676feac2d13ac6eec260c01b612719565b8161051567bfd2e047c806b32160c01b612719565b61052967a801e8cf6c40f77260c01b612719565b61053d67886a3362e9487a6160c01b612719565b6105516711185a4d93b32ad960c01b612719565b60036000828152602001908152602001600020600a0160009054906101000a900473ffffffffffffffffffffffffffffffffffffffff1673ffffffffffffffffffffffffffffffffffffffff163373ffffffffffffffffffffffffffffffffffffffff16036105f5576040517f08c379a00000000000000000000000000000000000000000000000000000000081526004016105ec90613087565b60405180910390fd5b6106096722871cbbfaeaef6660c01b612719565b61061d67efe28d7544fce80d60c01b612719565b610631675763a96ec8ce02fd60c01b612719565b61064567cd859b01badf51f460c01b612719565b8261065a67303df45ff850dfaf60c01b612719565b61066e67f98dbd6e2016722760c01b612719565b61068267b1087a50a892f36d60c01b612719565b610696677573242c44187cd660c01b612719565b600115156003600083815260200190815260200160002060080160009054906101000a900460ff16151514610700576040517f08c379a00000000000000000000000000000000000000000000000000000000081526004016106f7906130f3565b60405180910390fd5b6107146758b23e6b54f1b1a260c01b612719565b6107286737f0e8ce1f55070d60c01b612719565b61073c67c6ba6f71e34506ca60c01b612719565b610750676745235d4f99326f60c01b612719565b61076467d222edb5f7e3a58360c01b612719565b6107786722e3077babcf4eb660c01b612719565b61078c67c67df073373f21fb60c01b612719565b600073ffffffffffffffffffffffffffffffffffffffff163373ffffffffffffffffffffffffffffffffffffffff16036107c557600080fd5b6107d967db1d66df6fbcfece60c01b612719565b6107ed6746a4fce37a6cc60e60c01b612719565b6001600081548092919061080090612d15565b91905055506108196748e7e915338a1b9660c01b612719565b6002600081548092919061082c90612d15565b91905055506108456725a14c7160e1042460c01b612719565b3360036000868152602001908152602001600020600b0160006101000a81548173ffffffffffffffffffffffffffffffffffffffff021916908373ffffffffffffffffffffffffffffffffffffffff1602179055506108ae67d00cf08ade01305560c01b612719565b4260036000868152602001908152602001600020600901819055506108dd6726c8aba9ee55d6c260c01b612719565b60006003600086815260200190815260200160002060080160006101000a81548160ff0219169083151502179055506109206739e3f6bb7cc3e27060c01b612719565b62093a80600360008681526020019081526020016000206006018190555061095267350eb59f7736f54a60c01b612719565b60015460036000868152602001908152602001600020600201819055506109836736f752ed24f01d9660c01b612719565b60025460036000868152602001908152602001600020600101819055506109b4674c99e8f0032fec9860c01b612719565b604051806101800160405280600154815260200185815260200160025481526020016003600087815260200190815260200160002060030180546109f790612d8c565b80601f0160208091040260200160405190810160405280929190818152602001828054610a2390612d8c565b8015610a705780601f10610a4557610100808354040283529160200191610a70565b820191906000526020600020905b815481529060010190602001808311610a5357829003601f168201915b50505050508152602001600360008781526020019081526020016000206004018054610a9b90612d8c565b80601f0160208091040260200160405190810160405280929190818152602001828054610ac790612d8c565b8015610b145780601f10610ae957610100808354040283529160200191610b14565b820191906000526020600020905b815481529060010190602001808311610af757829003601f168201915b505050505081526020018481526020016003600087815260200190815260200160002060050154815260200162093a8081526020016003600087815260200190815260200160002060070154815260200142815260200160036000878152602001908152602001600020600a0160009054906101000a900473ffffffffffffffffffffffffffffffffffffffff1673ffffffffffffffffffffffffffffffffffffffff1681526020013373ffffffffffffffffffffffffffffffffffffffff168152506004600060015481526020019081526020016000206000820151816000015560208201518160010155604082015181600201556060820151816003019081610c1f9190612f69565b506080820151816004019081610c359190612f69565b5060a0820151816005019081610c4b9190612f69565b5060c0820151816006015560e082015181600701556101008201518160080155610120820151816009015561014082015181600a0160006101000a81548173ffffffffffffffffffffffffffffffffffffffff021916908373ffffffffffffffffffffffffffffffffffffffff16021790555061016082015181600b0160006101000a81548173ffffffffffffffffffffffffffffffffffffffff021916908373ffffffffffffffffffffffffffffffffffffffff160217905550905050610d1d678cee1ba3ac983ed760c01b612719565b6040518060e001604052806002548152602001600154815260200185815260200184815260200142815260200160036000878152602001908152602001600020600a0160009054906101000a900473ffffffffffffffffffffffffffffffffffffffff1673ffffffffffffffffffffffffffffffffffffffff1681526020013373ffffffffffffffffffffffffffffffffffffffff168152506005600060025481526020019081526020016000206000820151816000015560208201518160010155604082015181600201556060820151816003019081610dfe9190612f69565b506080820151816004015560a08201518160050160006101000a81548173ffffffffffffffffffffffffffffffffffffffff021916908373ffffffffffffffffffffffffffffffffffffffff16021790555060c08201518160060160006101000a81548173ffffffffffffffffffffffffffffffffffffffff021916908373ffffffffffffffffffffffffffffffffffffffff16021790555090505050505050565b60015481565b6003602052806000526040600020600091509050806000015490806001015490806002015490806003018054610edb90612d8c565b80601f0160208091040260200160405190810160405280929190818152602001828054610f0790612d8c565b8015610f545780601f10610f2957610100808354040283529160200191610f54565b820191906000526020600020905b815481529060010190602001808311610f3757829003601f168201915b505050505090806004018054610f6990612d8c565b80601f0160208091040260200160405190810160405280929190818152602001828054610f9590612d8c565b8015610fe25780601f10610fb757610100808354040283529160200191610fe2565b820191906000526020600020905b815481529060010190602001808311610fc557829003601f168201915b5050505050908060050154908060060154908060070154908060080160009054906101000a900460ff169080600901549080600a0160009054906101000a900473ffffffffffffffffffffffffffffffffffffffff169080600b0160009054906101000a900473ffffffffffffffffffffffffffffffffffffffff1690508c565b60005481565b600460205280600052604060002060009150905080600001549080600101549080600201549080600301805461109e90612d8c565b80601f01602080910402602001604051908101604052809291908181526020018280546110ca90612d8c565b80156111175780601f106110ec57610100808354040283529160200191611117565b820191906000526020600020905b8154815290600101906020018083116110fa57829003601f168201915b50505050509080600401805461112c90612d8c565b80601f016020809104026020016040519081016040528092919081815260200182805461115890612d8c565b80156111a55780601f1061117a576101008083540402835291602001916111a5565b820191906000526020600020905b81548152906001019060200180831161118857829003601f168201915b5050505050908060050180546111ba90612d8c565b80601f01602080910402602001604051908101604052809291908181526020018280546111e690612d8c565b80156112335780601f1061120857610100808354040283529160200191611233565b820191906000526020600020905b81548152906001019060200180831161121657829003601f168201915b50505050509080600601549080600701549080600801549080600901549080600a0160009054906101000a900473ffffffffffffffffffffffffffffffffffffffff169080600b0160009054906101000a900473ffffffffffffffffffffffffffffffffffffffff1690508c565b60025481565b6112bb67cac897c13cf3c2e960c01b612719565b816112d067bfd2e047c806b32160c01b612719565b6112e467a801e8cf6c40f77260c01b612719565b6112f867886a3362e9487a6160c01b612719565b61130c6711185a4d93b32ad960c01b612719565b60036000828152602001908152602001600020600a0160009054906101000a900473ffffffffffffffffffffffffffffffffffffffff1673ffffffffffffffffffffffffffffffffffffffff163373ffffffffffffffffffffffffffffffffffffffff16036113b0576040517f08c379a00000000000000000000000000000000000000000000000000000000081526004016113a790613087565b60405180910390fd5b6113c46722871cbbfaeaef6660c01b612719565b6113d867efe28d7544fce80d60c01b612719565b6113ec6729325e7144caebb760c01b612719565b611400677db9fad3060a2a1360c01b612719565b8261141567303df45ff850dfaf60c01b612719565b61142967f98dbd6e2016722760c01b612719565b61143d67b1087a50a892f36d60c01b612719565b611451677573242c44187cd660c01b612719565b600115156003600083815260200190815260200160002060080160009054906101000a900460ff161515146114bb576040517f08c379a00000000000000000000000000000000000000000000000000000000081526004016114b2906130f3565b60405180910390fd5b6114cf6758b23e6b54f1b1a260c01b612719565b6114e36737f0e8ce1f55070d60c01b612719565b6114f7674ca8e3f979c8df3960c01b612719565b61150b670f44f403fe1d9ef560c01b612719565b61151f670cf00129a0c5459160c01b612719565b61153367463964ec4833e02860c01b612719565b6115476740eb092536d0ceff60c01b612719565b600073ffffffffffffffffffffffffffffffffffffffff163373ffffffffffffffffffffffffffffffffffffffff160361158057600080fd5b6115946775bb59b9d4fcab7260c01b612719565b6115a86778a4ea29a2067a2e60c01b612719565b600160008154809291906115bb90612d15565b91905055506115d46766dc88294e69d4c960c01b612719565b600260008154809291906115e790612d15565b9190505550611600677975ee95a98925b760c01b612719565b3360036000868152602001908152602001600020600b0160006101000a81548173ffffffffffffffffffffffffffffffffffffffff021916908373ffffffffffffffffffffffffffffffffffffffff160217905550611669675a4ba4f3f312545760c01b612719565b4260036000868152602001908152602001600020600901819055506116986790be7c97680d8f6960c01b612719565b60006003600086815260200190815260200160002060080160006101000a81548160ff0219169083151502179055506116db67a3ad4ea02735ba0160c01b612719565b62278d00600360008681526020019081526020016000206006018190555061170d670c0e0eb7487484ed60c01b612719565b600154600360008681526020019081526020016000206002018190555061173e67f65bff40b80030fb60c01b612719565b600254600360008681526020019081526020016000206001018190555061176f67cb2f9e05b26aee0060c01b612719565b604051806101800160405280600154815260200185815260200160025481526020016003600087815260200190815260200160002060030180546117b290612d8c565b80601f01602080910402602001604051908101604052809291908181526020018280546117de90612d8c565b801561182b5780601f106118005761010080835404028352916020019161182b565b820191906000526020600020905b81548152906001019060200180831161180e57829003601f168201915b5050505050815260200160036000878152602001908152602001600020600401805461185690612d8c565b80601f016020809104026020016040519081016040528092919081815260200182805461188290612d8c565b80156118cf5780601f106118a4576101008083540402835291602001916118cf565b820191906000526020600020905b8154815290600101906020018083116118b257829003601f168201915b505050505081526020018481526020016003600087815260200190815260200160002060050154815260200162278d0081526020016003600087815260200190815260200160002060070154815260200142815260200160036000878152602001908152602001600020600a0160009054906101000a900473ffffffffffffffffffffffffffffffffffffffff1673ffffffffffffffffffffffffffffffffffffffff1681526020013373ffffffffffffffffffffffffffffffffffffffff1681525060046000600154815260200190815260200160002060008201518160000155602082015181600101556040820151816002015560608201518160030190816119da9190612f69565b5060808201518160040190816119f09190612f69565b5060a0820151816005019081611a069190612f69565b5060c0820151816006015560e082015181600701556101008201518160080155610120820151816009015561014082015181600a0160006101000a81548173ffffffffffffffffffffffffffffffffffffffff021916908373ffffffffffffffffffffffffffffffffffffffff16021790555061016082015181600b0160006101000a81548173ffffffffffffffffffffffffffffffffffffffff021916908373ffffffffffffffffffffffffffffffffffffffff160217905550905050611ad8670dc70300808e844360c01b612719565b6040518060e001604052806002548152602001600154815260200185815260200184815260200142815260200160036000878152602001908152602001600020600a0160009054906101000a900473ffffffffffffffffffffffffffffffffffffffff1673ffffffffffffffffffffffffffffffffffffffff1681526020013373ffffffffffffffffffffffffffffffffffffffff168152506005600060025481526020019081526020016000206000820151816000015560208201518160010155604082015181600201556060820151816003019081611bb99190612f69565b506080820151816004015560a08201518160050160006101000a81548173ffffffffffffffffffffffffffffffffffffffff021916908373ffffffffffffffffffffffffffffffffffffffff16021790555060c08201518160060160006101000a81548173ffffffffffffffffffffffffffffffffffffffff021916908373ffffffffffffffffffffffffffffffffffffffff16021790555090505050505050565b6005602052806000526040600020600091509050806000015490806001015490806002015490806003018054611c9090612d8c565b80601f0160208091040260200160405190810160405280929190818152602001828054611cbc90612d8c565b8015611d095780601f10611cde57610100808354040283529160200191611d09565b820191906000526020600020905b815481529060010190602001808311611cec57829003601f168201915b5050505050908060040154908060050160009054906101000a900473ffffffffffffffffffffffffffffffffffffffff16908060060160009054906101000a900473ffffffffffffffffffffffffffffffffffffffff16905087565b611d7967694b3f0d37e5d9af60c01b612719565b81611d8e67bfd2e047c806b32160c01b612719565b611da267a801e8cf6c40f77260c01b612719565b611db667886a3362e9487a6160c01b612719565b611dca6711185a4d93b32ad960c01b612719565b60036000828152602001908152602001600020600a0160009054906101000a900473ffffffffffffffffffffffffffffffffffffffff1673ffffffffffffffffffffffffffffffffffffffff163373ffffffffffffffffffffffffffffffffffffffff1603611e6e576040517f08c379a0000000000000000000000000000000000000000000000000000000008152600401611e6590613087565b60405180910390fd5b611e826722871cbbfaeaef6660c01b612719565b611e9667efe28d7544fce80d60c01b612719565b611eaa670b1d459bd522e41760c01b612719565b611ebe675cc62b20b67a089760c01b612719565b82611ed367303df45ff850dfaf60c01b612719565b611ee767f98dbd6e2016722760c01b612719565b611efb67b1087a50a892f36d60c01b612719565b611f0f677573242c44187cd660c01b612719565b600115156003600083815260200190815260200160002060080160009054906101000a900460ff16151514611f79576040517f08c379a0000000000000000000000000000000000000000000000000000000008152600401611f70906130f3565b60405180910390fd5b611f8d6758b23e6b54f1b1a260c01b612719565b611fa16737f0e8ce1f55070d60c01b612719565b611fb56760c0f3fb2855519660c01b612719565b611fc9673f79b11aaeeb5a3e60c01b612719565b611fdd67d1e958bff62a9b3960c01b612719565b611ff167265a032183d85a8860c01b612719565b61200567a4ef68d0a9ff424860c01b612719565b600073ffffffffffffffffffffffffffffffffffffffff163373ffffffffffffffffffffffffffffffffffffffff160361203e57600080fd5b61205267131accd197c9ff0060c01b612719565b6120666799f7c79d317d8d5c60c01b612719565b6001600081548092919061207990612d15565b919050555061209267759b4e730665bf0760c01b612719565b600260008154809291906120a590612d15565b91905055506120be67eb06e3ede575229460c01b612719565b3360036000868152602001908152602001600020600b0160006101000a81548173ffffffffffffffffffffffffffffffffffffffff021916908373ffffffffffffffffffffffffffffffffffffffff16021790555061212767543cb5d96db378f260c01b612719565b4260036000868152602001908152602001600020600901819055506121566711914973f9b61abb60c01b612719565b60006003600086815260200190815260200160002060080160006101000a81548160ff0219169083151502179055506121996703426e60be52730660c01b612719565b62ed4e0060036000868152602001908152602001600020600601819055506121cb67c64f77b9a151f6d960c01b612719565b60015460036000868152602001908152602001600020600201819055506121fc67ba6c74f7e955448360c01b612719565b600254600360008681526020019081526020016000206001018190555061222d673deb3e27fed7cdad60c01b612719565b6040518061018001604052806001548152602001858152602001600254815260200160036000878152602001908152602001600020600301805461227090612d8c565b80601f016020809104026020016040519081016040528092919081815260200182805461229c90612d8c565b80156122e95780601f106122be576101008083540402835291602001916122e9565b820191906000526020600020905b8154815290600101906020018083116122cc57829003601f168201915b5050505050815260200160036000878152602001908152602001600020600401805461231490612d8c565b80601f016020809104026020016040519081016040528092919081815260200182805461234090612d8c565b801561238d5780601f106123625761010080835404028352916020019161238d565b820191906000526020600020905b81548152906001019060200180831161237057829003601f168201915b505050505081526020018481526020016003600087815260200190815260200160002060050154815260200162ed4e0081526020016003600087815260200190815260200160002060070154815260200142815260200160036000878152602001908152602001600020600a0160009054906101000a900473ffffffffffffffffffffffffffffffffffffffff1673ffffffffffffffffffffffffffffffffffffffff1681526020013373ffffffffffffffffffffffffffffffffffffffff1681525060046000600154815260200190815260200160002060008201518160000155602082015181600101556040820151816002015560608201518160030190816124989190612f69565b5060808201518160040190816124ae9190612f69565b5060a08201518160050190816124c49190612f69565b5060c0820151816006015560e082015181600701556101008201518160080155610120820151816009015561014082015181600a0160006101000a81548173ffffffffffffffffffffffffffffffffffffffff021916908373ffffffffffffffffffffffffffffffffffffffff16021790555061016082015181600b0160006101000a81548173ffffffffffffffffffffffffffffffffffffffff021916908373ffffffffffffffffffffffffffffffffffffffff16021790555090505061259667dfa5e96915122c9960c01b612719565b6040518060e001604052806002548152602001600154815260200185815260200184815260200142815260200160036000878152602001908152602001600020600a0160009054906101000a900473ffffffffffffffffffffffffffffffffffffffff1673ffffffffffffffffffffffffffffffffffffffff1681526020013373ffffffffffffffffffffffffffffffffffffffff1681525060056000600254815260200190815260200160002060008201518160000155602082015181600101556040820151816002015560608201518160030190816126779190612f69565b506080820151816004015560a08201518160050160006101000a81548173ffffffffffffffffffffffffffffffffffffffff021916908373ffffffffffffffffffffffffffffffffffffffff16021790555060c08201518160060160006101000a81548173ffffffffffffffffffffffffffffffffffffffff021916908373ffffffffffffffffffffffffffffffffffffffff16021790555090505050505050565b50565b6000604051905090565b600080fd5b600080fd5b600080fd5b600080fd5b6000601f19601f8301169050919050565b7f4e487b7100000000000000000000000000000000000000000000000000000000600052604160045260246000fd5b6127838261273a565b810181811067ffffffffffffffff821117156127a2576127a161274b565b5b80604052505050565b60006127b561271c565b90506127c1828261277a565b919050565b600067ffffffffffffffff8211156127e1576127e061274b565b5b6127ea8261273a565b9050602081019050919050565b82818337600083830152505050565b6000612819612814846127c6565b6127ab565b90508281526020810184848401111561283557612834612735565b5b6128408482856127f7565b509392505050565b600082601f83011261285d5761285c612730565b5b813561286d848260208601612806565b91505092915050565b6000819050919050565b61288981612876565b811461289457600080fd5b50565b6000813590506128a681612880565b92915050565b600080600080608085870312156128c6576128c5612726565b5b600085013567ffffffffffffffff8111156128e4576128e361272b565b5b6128f087828801612848565b945050602085013567ffffffffffffffff8111156129115761291061272b565b5b61291d87828801612848565b935050604061292e87828801612897565b925050606061293f87828801612897565b91505092959194509250565b6000806040838503121561296257612961612726565b5b600061297085828601612897565b925050602083013567ffffffffffffffff8111156129915761299061272b565b5b61299d85828601612848565b9150509250929050565b6129b081612876565b82525050565b60006020820190506129cb60008301846129a7565b92915050565b6000602082840312156129e7576129e6612726565b5b60006129f584828501612897565b91505092915050565b600081519050919050565b600082825260208201905092915050565b60005b83811015612a38578082015181840152602081019050612a1d565b60008484015250505050565b6000612a4f826129fe565b612a598185612a09565b9350612a69818560208601612a1a565b612a728161273a565b840191505092915050565b60008115159050919050565b612a9281612a7d565b82525050565b600073ffffffffffffffffffffffffffffffffffffffff82169050919050565b6000612ac382612a98565b9050919050565b612ad381612ab8565b82525050565b600061018082019050612aef600083018f6129a7565b612afc602083018e6129a7565b612b09604083018d6129a7565b8181036060830152612b1b818c612a44565b90508181036080830152612b2f818b612a44565b9050612b3e60a083018a6129a7565b612b4b60c08301896129a7565b612b5860e08301886129a7565b612b66610100830187612a89565b612b746101208301866129a7565b612b82610140830185612aca565b612b90610160830184612aca565b9d9c50505050505050505050505050565b600061018082019050612bb7600083018f6129a7565b612bc4602083018e6129a7565b612bd1604083018d6129a7565b8181036060830152612be3818c612a44565b90508181036080830152612bf7818b612a44565b905081810360a0830152612c0b818a612a44565b9050612c1a60c08301896129a7565b612c2760e08301886129a7565b612c356101008301876129a7565b612c436101208301866129a7565b612c51610140830185612aca565b612c5f610160830184612aca565b9d9c50505050505050505050505050565b600060e082019050612c85600083018a6129a7565b612c9260208301896129a7565b612c9f60408301886129a7565b8181036060830152612cb18187612a44565b9050612cc060808301866129a7565b612ccd60a0830185612aca565b612cda60c0830184612aca565b98975050505050505050565b7f4e487b7100000000000000000000000000000000000000000000000000000000600052601160045260246000fd5b6000612d2082612876565b91507fffffffffffffffffffffffffffffffffffffffffffffffffffffffffffffffff8203612d5257612d51612ce6565b5b600182019050919050565b7f4e487b7100000000000000000000000000000000000000000000000000000000600052602260045260246000fd5b60006002820490506001821680612da457607f821691505b602082108103612db757612db6612d5d565b5b50919050565b60008190508160005260206000209050919050565b60006020601f8301049050919050565b600082821b905092915050565b600060088302612e1f7fffffffffffffffffffffffffffffffffffffffffffffffffffffffffffffffff82612de2565b612e298683612de2565b95508019841693508086168417925050509392505050565b6000819050919050565b6000612e66612e61612e5c84612876565b612e41565b612876565b9050919050565b6000819050919050565b612e8083612e4b565b612e94612e8c82612e6d565b848454612def565b825550505050565b600090565b612ea9612e9c565b612eb4818484612e77565b505050565b5b81811015612ed857612ecd600082612ea1565b600181019050612eba565b5050565b601f821115612f1d57612eee81612dbd565b612ef784612dd2565b81016020851015612f06578190505b612f1a612f1285612dd2565b830182612eb9565b50505b505050565b600082821c905092915050565b6000612f4060001984600802612f22565b1980831691505092915050565b6000612f598383612f2f565b9150826002028217905092915050565b612f72826129fe565b67ffffffffffffffff811115612f8b57612f8a61274b565b5b612f958254612d8c565b612fa0828285612edc565b600060209050601f831160018114612fd35760008415612fc1578287015190505b612fcb8582612f4d565b865550613033565b601f198416612fe186612dbd565b60005b8281101561300957848901518255600182019150602085019450602081019050612fe4565b868310156130265784890151613022601f891682612f2f565b8355505b6001600288020188555050505b505050505050565b7f4f6e6c7920557365722063616e20616363657373207468697300000000000000600082015250565b6000613071601983612a09565b915061307c8261303b565b602082019050919050565b600060208201905081810360008301526130a081613064565b9050919050565b7f4a6f622069732063757272656e746c7920436c6f7365642e0000000000000000600082015250565b60006130dd601883612a09565b91506130e8826130a7565b602082019050919050565b6000602082019050818103600083015261310c816130d0565b905091905056fea2646970667358221220734367fc306381576d032b28526e699f40caff8c9ca58844330061b05ece447764736f6c63430008120033",
  "linkReferences": {},
  "deployedLinkReferences": {}
}