{
  "_format": "hh-sol-artifact-1",
  "contractName": "Agreement",
  "sourceName": "contracts/Agreement.sol",
  "abi": [
    {
      "inputs": [
        {
          "internalType": "uint256",
          "name": "",
          "type": "uint256"
        }
      ],
      "name": "JobAgreement_by_No",
      "outputs": [
        {
          "internalType": "uint256",
          "name": "agreementId",
          "type": "uint256"
        },
        {
          "internalType": "uint256",
          "name": "jobId",
          "type": "uint256"
        },
        {
          "internalType": "uint256",
          "name": "userId",
          "type": "uint256"
        },
        {
          "internalType": "string",
          "name": "jobTitle",
          "type": "string"
        },
        {
          "internalType": "string",
          "name": "companyName",
          "type": "string"
        },
        {
          "internalType": "string",
          "name": "userName",
          "type": "string"
        },
        {
          "internalType": "uint256",
          "name": "workHourPerWeek",
          "type": "uint256"
        },
        {
          "internalType": "uint256",
          "name": "contractDuration",
          "type": "uint256"
        },
        {
          "internalType": "uint256",
          "name": "salaryPerHour",
          "type": "uint256"
        },
        {
          "internalType": "uint256",
          "name": "timestamp",
          "type": "uint256"
        },
        {
          "internalType": "address",
          "name": "signedEmployer",
          "type": "address"
        },
        {
          "internalType": "address",
          "name": "signedUser",
          "type": "address"
        }
      ],
      "stateMutability": "view",
      "type": "function"
    },
    {
      "inputs": [
        {
          "internalType": "uint256",
          "name": "",
          "type": "uint256"
        }
      ],
      "name": "Job_by_No",
      "outputs": [
        {
          "internalType": "uint256",
          "name": "jobId",
          "type": "uint256"
        },
        {
          "internalType": "uint256",
          "name": "userId",
          "type": "uint256"
        },
        {
          "internalType": "uint256",
          "name": "agreementId",
          "type": "uint256"
        },
        {
          "internalType": "string",
          "name": "jobTitle",
          "type": "string"
        },
        {
          "internalType": "string",
          "name": "companyName",
          "type": "string"
        },
        {
          "internalType": "uint256",
          "name": "workHourPerWeek",
          "type": "uint256"
        },
        {
          "internalType": "uint256",
          "name": "contractDuration",
          "type": "uint256"
        },
        {
          "internalType": "uint256",
          "name": "salaryPerHour",
          "type": "uint256"
        },
        {
          "internalType": "bool",
          "name": "statusOpen",
          "type": "bool"
        },
        {
          "internalType": "uint256",
          "name": "timestamp",
          "type": "uint256"
        },
        {
          "internalType": "address",
          "name": "employer",
          "type": "address"
        },
        {
          "internalType": "address",
          "name": "currentUser",
          "type": "address"
        }
      ],
      "stateMutability": "view",
      "type": "function"
    },
    {
      "inputs": [
        {
          "internalType": "uint256",
          "name": "",
          "type": "uint256"
        }
      ],
      "name": "User_by_No",
      "outputs": [
        {
          "internalType": "uint256",
          "name": "userId",
          "type": "uint256"
        },
        {
          "internalType": "uint256",
          "name": "agreementId",
          "type": "uint256"
        },
        {
          "internalType": "uint256",
          "name": "jobId",
          "type": "uint256"
        },
        {
          "internalType": "string",
          "name": "userName",
          "type": "string"
        },
        {
          "internalType": "uint256",
          "name": "timestamp",
          "type": "uint256"
        },
        {
          "internalType": "address",
          "name": "currentEmployer",
          "type": "address"
        },
        {
          "internalType": "address",
          "name": "user",
          "type": "address"
        }
      ],
      "stateMutability": "view",
      "type": "function"
    },
    {
      "inputs": [
        {
          "internalType": "string",
          "name": "_jobTitle",
          "type": "string"
        },
        {
          "internalType": "string",
          "name": "_companyName",
          "type": "string"
        },
        {
          "internalType": "uint256",
          "name": "_workHourPerWeek",
          "type": "uint256"
        },
        {
          "internalType": "uint256",
          "name": "_salaryPerHour",
          "type": "uint256"
        }
      ],
      "name": "addJob",
      "outputs": [],
      "stateMutability": "nonpayable",
      "type": "function"
    },
    {
      "inputs": [
        {
          "internalType": "uint256",
          "name": "_index",
          "type": "uint256"
        },
        {
          "internalType": "string",
          "name": "_userName",
          "type": "string"
        }
      ],
      "name": "createAndSignAgreementFor180Days",
      "outputs": [],
      "stateMutability": "nonpayable",
      "type": "function"
    },
    {
      "inputs": [
        {
          "internalType": "uint256",
          "name": "_index",
          "type": "uint256"
        },
        {
          "internalType": "string",
          "name": "_userName",
          "type": "string"
        }
      ],
      "name": "createAndSignAgreementFor30Days",
      "outputs": [],
      "stateMutability": "nonpayable",
      "type": "function"
    },
    {
      "inputs": [
        {
          "internalType": "uint256",
          "name": "_index",
          "type": "uint256"
        },
        {
          "internalType": "string",
          "name": "_userName",
          "type": "string"
        }
      ],
      "name": "createAndSignAgreementFor7Days",
      "outputs": [],
      "stateMutability": "nonpayable",
      "type": "function"
    },
    {
      "inputs": [],
      "name": "no_of_jobAgreements",
      "outputs": [
        {
          "internalType": "uint256",
          "name": "",
          "type": "uint256"
        }
      ],
      "stateMutability": "view",
      "type": "function"
    },
    {
      "inputs": [],
      "name": "no_of_jobs",
      "outputs": [
        {
          "internalType": "uint256",
          "name": "",
          "type": "uint256"
        }
      ],
      "stateMutability": "view",
      "type": "function"
    },
    {
      "inputs": [],
      "name": "no_of_users",
      "outputs": [
        {
          "internalType": "uint256",
          "name": "",
          "type": "uint256"
        }
      ],
      "stateMutability": "view",
      "type": "function"
    }
  ],
  "bytecode": "0x6080604052600080556000600155600060025534801561001e57600080fd5b506116f68061002e6000396000f3fe608060405234801561001057600080fd5b506004361061009e5760003560e01c8063ccdbaf4011610066578063ccdbaf401461011b578063cded162514610146578063d5571ba51461014f578063f2334dd614610162578063f3e5656b1461018857600080fd5b8063184d3055146100a357806363941072146100b85780638e750fdb146100cb578063a1236031146100e7578063b9871c1f14610112575b600080fd5b6100b66100b1366004611260565b61019b565b005b6100b66100c63660046112d4565b6102e8565b6100d460015481565b6040519081526020015b60405180910390f35b6100fa6100f536600461131b565b610794565b6040516100de9c9b9a9998979695949392919061137a565b6100d460005481565b61012e61012936600461131b565b610917565b6040516100de9c9b9a999897969594939291906113ff565b6100d460025481565b6100b661015d3660046112d4565b610b19565b61017561017036600461131b565b610e02565b6040516100de9796959493929190611494565b6100b66101963660046112d4565b610ed4565b336101a557600080fd5b6000805490806101b4836114e2565b90915550506040805161018081018252600080548083526020808401838152848601848152606086018b8152608087018b905260a087018a905260c0870186905260e087018990526001610100880181905261012088018790523361014089015261016088018790529486526003938490529690942085518155905181840155925160028401559351909382019061024c9082611592565b50608082015160048201906102619082611592565b5060a0820151600582015560c0820151600682015560e0820151600782015561010082015160088201805460ff19169115159190911790556101208201516009820155610140820151600a820180546001600160a01b03199081166001600160a01b039384161790915561016090930151600b909201805490931691161790555050505050565b6000828152600360205260409020600a015482906001600160a01b0316330361032c5760405162461bcd60e51b815260040161032390611652565b60405180910390fd5b600083815260036020526040902060080154839060ff1615156001146103645760405162461bcd60e51b815260040161032390611689565b3361036e57600080fd5b6001805490600061037e836114e2565b909155505060028054906000610393836114e2565b90915550506000848152600360208181526040808420600b810180546001600160a01b0319163317905542600982015560088101805460ff1916905562093a8060068201556001805460028084019190915554818301819055835161018081018552915482528185018b90529281019290925293889052908290529101805460608301919061042190611509565b80601f016020809104026020016040519081016040528092919081815260200182805461044d90611509565b801561049a5780601f1061046f5761010080835404028352916020019161049a565b820191906000526020600020905b81548152906001019060200180831161047d57829003601f168201915b505050505081526020016003600087815260200190815260200160002060040180546104c590611509565b80601f01602080910402602001604051908101604052809291908181526020018280546104f190611509565b801561053e5780601f106105135761010080835404028352916020019161053e565b820191906000526020600020905b81548152906001019060200180831161052157829003601f168201915b5050509183525050602080820186905260008781526003808352604080832060058101548287015262093a80606080880191909152600782015460808801524260a0880152600a909101546001600160a01b031660c08701523360e09096019590955260018054845260048552928190208651815593860151928401929092559084015160028301559183015190918201906105da9082611592565b50608082015160048201906105ef9082611592565b5060a082015160058201906106049082611592565b5060c0820151816006015560e082015181600701556101008201518160080155610120820151816009015561014082015181600a0160006101000a8154816001600160a01b0302191690836001600160a01b0316021790555061016082015181600b0160006101000a8154816001600160a01b0302191690836001600160a01b031602179055509050506040518060e001604052806002548152602001600154815260200185815260200184815260200142815260200160036000878152602001908152602001600020600a0160009054906101000a90046001600160a01b03166001600160a01b03168152602001336001600160a01b031681525060056000600254815260200190815260200160002060008201518160000155602082015181600101556040820151816002015560608201518160030190816107489190611592565b506080820151600482015560a08201516005820180546001600160a01b03199081166001600160a01b039384161790915560c09093015160069092018054909316911617905550505050565b60036020528060005260406000206000915090508060000154908060010154908060020154908060030180546107c990611509565b80601f01602080910402602001604051908101604052809291908181526020018280546107f590611509565b80156108425780601f1061081757610100808354040283529160200191610842565b820191906000526020600020905b81548152906001019060200180831161082557829003601f168201915b50505050509080600401805461085790611509565b80601f016020809104026020016040519081016040528092919081815260200182805461088390611509565b80156108d05780601f106108a5576101008083540402835291602001916108d0565b820191906000526020600020905b8154815290600101906020018083116108b357829003601f168201915b50505060058401546006850154600786015460088701546009880154600a890154600b909901549798949793965091945060ff169290916001600160a01b0391821691168c565b60046020526000908152604090208054600182015460028301546003840180549394929391929161094790611509565b80601f016020809104026020016040519081016040528092919081815260200182805461097390611509565b80156109c05780601f10610995576101008083540402835291602001916109c0565b820191906000526020600020905b8154815290600101906020018083116109a357829003601f168201915b5050505050908060040180546109d590611509565b80601f0160208091040260200160405190810160405280929190818152602001828054610a0190611509565b8015610a4e5780601f10610a2357610100808354040283529160200191610a4e565b820191906000526020600020905b815481529060010190602001808311610a3157829003601f168201915b505050505090806005018054610a6390611509565b80601f0160208091040260200160405190810160405280929190818152602001828054610a8f90611509565b8015610adc5780601f10610ab157610100808354040283529160200191610adc565b820191906000526020600020905b815481529060010190602001808311610abf57829003601f168201915b5050506006840154600785015460088601546009870154600a880154600b9098015496979396929550909350916001600160a01b0390811691168c565b6000828152600360205260409020600a015482906001600160a01b03163303610b545760405162461bcd60e51b815260040161032390611652565b600083815260036020526040902060080154839060ff161515600114610b8c5760405162461bcd60e51b815260040161032390611689565b33610b9657600080fd5b60018054906000610ba6836114e2565b909155505060028054906000610bbb836114e2565b90915550506000848152600360208181526040808420600b810180546001600160a01b0319163317905542600982015560088101805460ff1916905562278d0060068201556001805460028084019190915554818301819055835161018081018552915482528185018b905292810192909252938890529082905291018054606083019190610c4990611509565b80601f0160208091040260200160405190810160405280929190818152602001828054610c7590611509565b8015610cc25780601f10610c9757610100808354040283529160200191610cc2565b820191906000526020600020905b815481529060010190602001808311610ca557829003601f168201915b50505050508152602001600360008781526020019081526020016000206004018054610ced90611509565b80601f0160208091040260200160405190810160405280929190818152602001828054610d1990611509565b8015610d665780601f10610d3b57610100808354040283529160200191610d66565b820191906000526020600020905b815481529060010190602001808311610d4957829003601f168201915b5050509183525050602080820186905260008781526003808352604080832060058101548287015262278d00606080880191909152600782015460808801524260a0880152600a909101546001600160a01b031660c08701523360e09096019590955260018054845260048552928190208651815593860151928401929092559084015160028301559183015190918201906105da9082611592565b600560205260009081526040902080546001820154600283015460038401805493949293919291610e3290611509565b80601f0160208091040260200160405190810160405280929190818152602001828054610e5e90611509565b8015610eab5780601f10610e8057610100808354040283529160200191610eab565b820191906000526020600020905b815481529060010190602001808311610e8e57829003601f168201915b5050505060048301546005840154600690940154929390926001600160a01b0391821692501687565b6000828152600360205260409020600a015482906001600160a01b03163303610f0f5760405162461bcd60e51b815260040161032390611652565b600083815260036020526040902060080154839060ff161515600114610f475760405162461bcd60e51b815260040161032390611689565b33610f5157600080fd5b60018054906000610f61836114e2565b909155505060028054906000610f76836114e2565b90915550506000848152600360208181526040808420600b810180546001600160a01b0319163317905542600982015560088101805460ff1916905562ed4e0060068201556001805460028084019190915554818301819055835161018081018552915482528185018b90529281019290925293889052908290529101805460608301919061100490611509565b80601f016020809104026020016040519081016040528092919081815260200182805461103090611509565b801561107d5780601f106110525761010080835404028352916020019161107d565b820191906000526020600020905b81548152906001019060200180831161106057829003601f168201915b505050505081526020016003600087815260200190815260200160002060040180546110a890611509565b80601f01602080910402602001604051908101604052809291908181526020018280546110d490611509565b80156111215780601f106110f657610100808354040283529160200191611121565b820191906000526020600020905b81548152906001019060200180831161110457829003601f168201915b5050509183525050602080820186905260008781526003808352604080832060058101548287015262ed4e00606080880191909152600782015460808801524260a0880152600a909101546001600160a01b031660c08701523360e09096019590955260018054845260048552928190208651815593860151928401929092559084015160028301559183015190918201906105da9082611592565b634e487b7160e01b600052604160045260246000fd5b600082601f8301126111e457600080fd5b813567ffffffffffffffff808211156111ff576111ff6111bd565b604051601f8301601f19908116603f01168101908282118183101715611227576112276111bd565b8160405283815286602085880101111561124057600080fd5b836020870160208301376000602085830101528094505050505092915050565b6000806000806080858703121561127657600080fd5b843567ffffffffffffffff8082111561128e57600080fd5b61129a888389016111d3565b955060208701359150808211156112b057600080fd5b506112bd878288016111d3565b949794965050505060408301359260600135919050565b600080604083850312156112e757600080fd5b82359150602083013567ffffffffffffffff81111561130557600080fd5b611311858286016111d3565b9150509250929050565b60006020828403121561132d57600080fd5b5035919050565b6000815180845260005b8181101561135a5760208185018101518683018201520161133e565b506000602082860101526020601f19601f83011685010191505092915050565b60006101808e83528d60208401528c60408401528060608401526113a08184018d611334565b905082810360808401526113b4818c611334565b60a084019a909a52505060c081019690965260e08601949094529115156101008501526101208401526001600160a01b03908116610140840152166101609091015295945050505050565b60006101808e83528d60208401528c60408401528060608401526114258184018d611334565b90508281036080840152611439818c611334565b905082810360a084015261144d818b611334565b60c0840199909952505060e08101959095526101008501939093526101208401919091526001600160a01b0390811661014084015216610160909101529695505050505050565b87815286602082015285604082015260e0606082015260006114b960e0830187611334565b6080830195909552506001600160a01b0392831660a0820152911660c090910152949350505050565b60006001820161150257634e487b7160e01b600052601160045260246000fd5b5060010190565b600181811c9082168061151d57607f821691505b60208210810361153d57634e487b7160e01b600052602260045260246000fd5b50919050565b601f82111561158d57600081815260208120601f850160051c8101602086101561156a5750805b601f850160051c820191505b8181101561158957828155600101611576565b5050505b505050565b815167ffffffffffffffff8111156115ac576115ac6111bd565b6115c0816115ba8454611509565b84611543565b602080601f8311600181146115f557600084156115dd5750858301515b600019600386901b1c1916600185901b178555611589565b600085815260208120601f198616915b8281101561162457888601518255948401946001909101908401611605565b50858210156116425787850151600019600388901b60f8161c191681555b5050505050600190811b01905550565b60208082526019908201527f4f6e6c7920557365722063616e20616363657373207468697300000000000000604082015260600190565b60208082526018908201527f4a6f622069732063757272656e746c7920436c6f7365642e000000000000000060408201526060019056fea2646970667358221220905b55ea9340aae44e68be52cdf2e30aa3108f91b4735743c76df36c79bdb44c64736f6c63430008120033",
  "linkReferences": {},
  "deployedLinkReferences": {}
}